{
  "contractName": "Applications",
  "abi": [
    {
      "inputs": [
        {
          "name": "_publicKey",
          "type": "string"
        },
        {
          "name": "_publicData",
          "type": "string"
        },
        {
          "name": "_encryptedData",
          "type": "string"
        }
      ],
      "payable": false,
      "stateMutability": "nonpayable",
      "type": "constructor"
    },
    {
      "constant": true,
      "inputs": [],
      "name": "getPublicKey",
      "outputs": [
        {
          "name": "",
          "type": "string"
        }
      ],
      "payable": false,
      "stateMutability": "view",
      "type": "function"
    },
    {
      "constant": true,
      "inputs": [],
      "name": "getPublicData",
      "outputs": [
        {
          "name": "",
          "type": "string"
        }
      ],
      "payable": false,
      "stateMutability": "view",
      "type": "function"
    },
    {
      "constant": true,
      "inputs": [],
      "name": "getEncryptedData",
      "outputs": [
        {
          "name": "",
          "type": "string"
        }
      ],
      "payable": false,
      "stateMutability": "view",
      "type": "function"
    },
    {
      "constant": false,
      "inputs": [
        {
          "name": "_applicationData",
          "type": "string"
        }
      ],
      "name": "submitApplication",
      "outputs": [],
      "payable": false,
      "stateMutability": "nonpayable",
      "type": "function"
    },
    {
      "constant": true,
      "inputs": [],
      "name": "getApplicants",
      "outputs": [
        {
          "name": "",
          "type": "address[]"
        }
      ],
      "payable": false,
      "stateMutability": "view",
      "type": "function"
    },
    {
      "constant": true,
      "inputs": [
        {
          "name": "_applicant",
          "type": "address"
        }
      ],
      "name": "getApplication",
      "outputs": [
        {
          "name": "",
          "type": "string"
        }
      ],
      "payable": false,
      "stateMutability": "view",
      "type": "function"
    }
  ],
  "bytecode": "0x6060604052341561000f57600080fd5b604051610a30380380610a3083398101604052808051820191906020018051820191906020018051820191905050826000908051906020019061005392919061008a565b50816001908051906020019061006a92919061008a565b50806002908051906020019061008192919061008a565b5050505061012f565b828054600181600116156101000203166002900490600052602060002090601f016020900481019282601f106100cb57805160ff19168380011785556100f9565b828001600101855582156100f9579182015b828111156100f85782518255916020019190600101906100dd565b5b509050610106919061010a565b5090565b61012c91905b80821115610128576000816000905550600101610110565b5090565b90565b6108f28061013e6000396000f300606060405260043610610078576000357c0100000000000000000000000000000000000000000000000000000000900463ffffffff1680632e3344521461007d578063455772d21461010b578063778c559b146101755780637ef508bb146101d2578063879a2d2a14610260578063bf7ce74214610312575b600080fd5b341561008857600080fd5b6100906103a0565b6040518080602001828103825283818151815260200191508051906020019080838360005b838110156100d05780820151818401526020810190506100b5565b50505050905090810190601f1680156100fd5780820380516001836020036101000a031916815260200191505b509250505060405180910390f35b341561011657600080fd5b61011e610448565b6040518080602001828103825283818151815260200191508051906020019060200280838360005b83811015610161578082015181840152602081019050610146565b505050509050019250505060405180910390f35b341561018057600080fd5b6101d0600480803590602001908201803590602001908080601f016020809104026020016040519081016040528093929190818152602001838380828437820191505050505050919050506104dc565b005b34156101dd57600080fd5b6101e5610596565b6040518080602001828103825283818151815260200191508051906020019080838360005b8381101561022557808201518184015260208101905061020a565b50505050905090810190601f1680156102525780820380516001836020036101000a031916815260200191505b509250505060405180910390f35b341561026b57600080fd5b610297600480803573ffffffffffffffffffffffffffffffffffffffff1690602001909190505061063e565b6040518080602001828103825283818151815260200191508051906020019080838360005b838110156102d75780820151818401526020810190506102bc565b50505050905090810190601f1680156103045780820380516001836020036101000a031916815260200191505b509250505060405180910390f35b341561031d57600080fd5b610325610725565b6040518080602001828103825283818151815260200191508051906020019080838360005b8381101561036557808201518184015260208101905061034a565b50505050905090810190601f1680156103925780820380516001836020036101000a031916815260200191505b509250505060405180910390f35b6103a86107cd565b60008054600181600116156101000203166002900480601f01602080910402602001604051908101604052809291908181526020018280546001816001161561010002031660029004801561043e5780601f106104135761010080835404028352916020019161043e565b820191906000526020600020905b81548152906001019060200180831161042157829003601f168201915b5050505050905090565b6104506107e1565b60048054806020026020016040519081016040528092919081815260200182805480156104d257602002820191906000526020600020905b8160009054906101000a900473ffffffffffffffffffffffffffffffffffffffff1673ffffffffffffffffffffffffffffffffffffffff1681526020019060010190808311610488575b5050505050905090565b80600360003373ffffffffffffffffffffffffffffffffffffffff1673ffffffffffffffffffffffffffffffffffffffff168152602001908152602001600020908051906020019061052f9291906107f5565b50600480548060010182816105449190610875565b9160005260206000209001600033909190916101000a81548173ffffffffffffffffffffffffffffffffffffffff021916908373ffffffffffffffffffffffffffffffffffffffff1602179055505050565b61059e6107cd565b60028054600181600116156101000203166002900480601f0160208091040260200160405190810160405280929190818152602001828054600181600116156101000203166002900480156106345780601f1061060957610100808354040283529160200191610634565b820191906000526020600020905b81548152906001019060200180831161061757829003601f168201915b5050505050905090565b6106466107cd565b600360008373ffffffffffffffffffffffffffffffffffffffff1673ffffffffffffffffffffffffffffffffffffffff1681526020019081526020016000208054600181600116156101000203166002900480601f0160208091040260200160405190810160405280929190818152602001828054600181600116156101000203166002900480156107195780601f106106ee57610100808354040283529160200191610719565b820191906000526020600020905b8154815290600101906020018083116106fc57829003601f168201915b50505050509050919050565b61072d6107cd565b60018054600181600116156101000203166002900480601f0160208091040260200160405190810160405280929190818152602001828054600181600116156101000203166002900480156107c35780601f10610798576101008083540402835291602001916107c3565b820191906000526020600020905b8154815290600101906020018083116107a657829003601f168201915b5050505050905090565b602060405190810160405280600081525090565b602060405190810160405280600081525090565b828054600181600116156101000203166002900490600052602060002090601f016020900481019282601f1061083657805160ff1916838001178555610864565b82800160010185558215610864579182015b82811115610863578251825591602001919060010190610848565b5b50905061087191906108a1565b5090565b81548183558181151161089c5781836000526020600020918201910161089b91906108a1565b5b505050565b6108c391905b808211156108bf5760008160009055506001016108a7565b5090565b905600a165627a7a72305820c7b2dba32e7c3400195ab49a2f8ff25b294de71c40d8c4e632d636cae1fddf5b0029",
  "source": "pragma solidity ^0.4.19;\n\ncontract Applications {\n  string publicKey;\n  string publicData;\n  string encryptedData;\n\n  mapping(address => string) applications; // all applicants, encrypted with different Gladius owned key\n  address[] applicants;\n\n  function Applications(string _publicKey, string _publicData, string _encryptedData) public {\n    publicKey = _publicKey;\n    publicData = _publicData;\n    encryptedData = _encryptedData;\n  }\n\n  /*\n  * get the public key\n  */\n  function getPublicKey() view public returns (string) {\n    return publicKey;\n  }\n\n  /*\n  * get the public data\n  */\n  function getPublicData() view public returns (string) {\n    return publicData;\n  }\n\n  /*\n  * get the encrypted data\n  */\n  function getEncryptedData() view public returns (string) {\n    return encryptedData;\n  }\n\n  /*\n  * submit application and get added to the list of applicants\n  * @param _applicationData encrypted application data\n  */\n  function submitApplication(string _applicationData) public {\n    applications[msg.sender] = _applicationData;\n    applicants.push(msg.sender);\n  }\n\n  /*\n  * list of all applicants\n  */\n  function getApplicants() view public returns(address[]) {\n    return applicants;\n  }\n\n  /*\n  * get application of specific applicant\n  * @param _applicant applicant address\n  */\n  function getApplication(address _applicant) view public returns(string) {\n    return applications[_applicant];\n  }\n\n}\n",
  "sourcePath": "/home/marcelo/Developer/gladius-hiring-exercise/contracts/Applications.sol",
  "compiler": {
    "name": "solc",
    "version": "0.4.19+commit.c4cbbb05.Emscripten.clang"
  },
  "schemaVersion": "2.0.0",
  "updatedAt": "2018-04-05T20:17:31.042Z"
}